:020000040800F2
:1000000038050020310200083F02000841020008C4
:1000100043020008450200084702000800000000F3
:10002000000000000000000000000000490200087D
:100030004B020008000000004D0200084F020008BB
:100040005102000851020008510200085102000844
:100050005102000851020008510200085102000834
:100060005102000851020008510200085102000824
:100070005102000851020008510200085102000814
:100080005102000851020008510200085102000804
:1000900051020008510200085102000851020008F4
:1000A00051020008510200085102000851020008E4
:1000B00051020008510200085102000851020008D4
:1000C00051020008510200085102000851020008C4
:1000D000510200082D0800085102000851020008D2
:1000E00051020008510200085102000851020008A4
:1000F0005102000851020008510200085102000894
:100100005102000851020008510200085102000883
:100110005102000851020008510200085102000873
:100120005102000851020008510200085102000863
:100130005102000851020008510200085102000853
:100140005102000851020008510200085102000843
:100150005102000851020008510200085102000833
:100160005102000851020008510200085102000823
:100170005102000851020008510200085102000813
:10018000510200085102000800F002F800F041F8A6
:100190000AA090E8000C82448344AAF10107DA45E2
:1001A00001D100F036F8AFF2090EBAE80F0013F0F3
:1001B000010F18BFFB1A43F0010318477009000034
:1001C00090090000103A24BF78C878C1FAD85207C5
:1001D00024BF30C830C144BF04680C6070470000C1
:1001E0000023002400250026103A28BF78C1FBD840
:1001F000520728BF30C148BF0B607047642900F028
:100200007B80002070471FB500F08AFC1FBD10B531
:1002100010BD00F039F91146FFF7F5FF00F0B0FB13
:1002200000F057F903B4FFF7F2FF03BC00F03EFB08
:100230000B48016841F4700101600A480047FEE77D
:10024000FEE7FEE7FEE7FEE7FEE7FEE7FEE7FEE786
:10025000FEE7000004480549034A054B70470000CB
:1002600088ED00E0890100083801002038050020F1
:1002700038010020704700000FB4044910B503AAEC
:10028000029800F0D3F810BC5DF814FB04000020C5
:100290002DE9F0410E460446002020622046E16828
:1002A000884730B3252805D0D4E901219047206A3A
:1002B000401CF2E7E168204600278847050018D077
:1002C000A5F14100192802D820354FF400673246C5
:1002D000294620462760FFF791FF40B1012804D04E
:1002E000F61D26F007060836D8E7361DD6E728465D
:1002F000DAE7206ABDE8F0812DE9F04106460024E6
:1003000010687529314616A510D0AFF3008000287B
:1003100002DA404213A507E031688A0701D512A529
:1003200002E0490704D511A5012401E0AFF30080E4
:1003300000210A2206F1240709E0B0FBF2FCB0FB21
:10034000F2F302FB1C00303078541846491C002898
:10035000F3D123462A463046BDE8F04100F00CB800
:10036000000000002D0000002B0000002000000015
:1003700070477047704770472DE9F0470D46994622
:100380009246044600F124080168880604D5E06915
:1003900021F01001216000E00120A84201DD471B8F
:1003A00000E00027A1697A1902EB0900081AA06190
:1003B0002078C00602D42046AFF30080002608E073
:1003C000D4E901211AF806009047206A401C761CE7
:1003D00020624E45F4DB2078C0060AD52046AFF3F4
:1003E000008006E0D4E9012130209047206A401CBB
:1003F0002062381EA7F10107F4DC07E0D4E90121EF
:1004000018F805009047206A401C2062281EA5F1BC
:100410000105F3DC2046AFF300802078000602D50A
:100420000220BDE8F0870120FBE70000074B70B514
:100430000D467B4400F011F80446284600F020F8F1
:1004400010B14FF0FF3070BD204670BD2F05000089
:1004500001694A1C02610878704700B58FB0CDE988
:1004600001310021059105497944CDE90310114678
:100470006846FFF70DFF0FB000BD0000E5FFFFFF6E
:10048000007B00F080007047754600F029F8AE460A
:1004900005006946534620F00700854618B020B590
:1004A000FFF7D8FEBDE820404FF000064FF00007F0
:1004B0004FF000084FF0000B21F00701AC46ACE80C
:1004C000C009ACE8C009ACE8C009ACE8C0098D4679
:1004D00070470446AFF300802046FFF7A3FE0000FC
:1004E00000487047D400002030B5CC1000F1200344
:1004F00053F824304C07E50E0F24AC40A343CD1035
:1005000000F1200444F82530CC1000F1200353F80A
:1005100024304C07E40E02FA04F42343CD1000F11A
:10052000200444F8253030BD2DE9F0470C46DDE9C4
:100530000867002100258C4600BF60E04FF00108ED
:1005400008FA01F504EA050CAC4557D1D0F8008053
:100550004FEA410A4FF0030909FA0AF928EA0908A3
:10056000C0F80080D0F800804FEA410902FA09F98A
:1005700048EA0908C0F80080012A01D0022A27D1E0
:10058000D0F808804FEA410A4FF0030909FA0AF946
:1005900028EA0908C0F80880D0F808804FEA410925
:1005A00006FA09F948EA0908C0F80880D0F804906A
:1005B0004FF0010808FA01F829EA0809C0F8049088
:1005C000D0F8048003FA01F948EA0908C0F8048069
:1005D000D0F80C804FEA410A4FF0030909FA0AF9F2
:1005E00028EA0908C0F80C80D0F80C804FEA4109CD
:1005F00007FA09F948EA0908C0F80C80491C1029D3
:100600009CD3BDE8F08700002DE9F04107468846FD
:1006100014461D46284600F033F8C5F1040007FAD9
:1006200000F60F20284100EA0800064306F00F06F6
:10063000E21704EBD2625211920002F1E022D2F8EA
:1006400000212146E31704EBD3635B11A4EB431CA9
:10065000012303FA0CF31A432046E31704EBD36398
:100660005B119B0003F1E023C3F800210348005D08
:1006700040EA061001490855BDE8F08100E400E0B9
:100680000146072323EA01021202054B18684FF6C0
:10069000FF031840034B18431043014B1860704789
:1006A0000CED00E00000FA054A0A52020243014B39
:1006B0001A60704708ED00E0F0B504460D46164696
:1006C0001F461448006840F00100124908600020ED
:1006D0001049083108600F4800680F4908400D496B
:1006E00008600E48091D0860081F006820F480207B
:1006F000091F0860002007490C3108603B4632465C
:100700002946204600F00CF800210846FFF7CCFFF0
:10071000F0BD000000380240FFFFF6FE103000245C
:10072000F0B504460D46002100203D4E366846F4E3
:1007300080363B4F3E6001E04E1CB1B2384E366809
:1007400006F400361EB941F6FF76B142F4DB41F6FD
:10075000FF76B14201D1012060E0314E403636686B
:1007600046F080562E4F40373E602E4E366846F497
:1007700040462C4F3E602A4E0836366846F41446F2
:10078000274F08373E60264E366826F08076244F85
:100790003E6045EA84160127C7EB520746EA074642
:1007A00046EA036646F480061D4F3F1D3E603E1F2D
:1007B000366846F080763F1F3E6000BF184E3668B0
:1007C00006F00076002EF9D0174E366846F4807693
:1007D000154F3E603E46366846F400763E603E4623
:1007E000366846F480663E603E46366846F005064A
:1007F0003E600B4E0836366826F00306084F083771
:100800003E603E46366846F002063E6000BF044E3B
:100810000836366806F00C06082EF8D1F0BD000048
:100820000038024000700040003C02401C4909882A
:1008300001F0200109B31A498988C8B21949098809
:1008400001F40041C9B91749098801F4804161B137
:100850000A2803D00021134A118020E01149098899
:1008600041F400410F4A118019E00D2806D10D49CD
:10087000098841F480410B4A118010E00949098838
:10088000C1F30D01084A505406490988491C054A1C
:10089000118011460988C72901DD002111807047A8
:1008A00000100140080000200C00002000BF70472D
:1008B0004FF0E021096921F004014FF0E0221161BD
:1008C000C21700EB5272C2F3C702074B1A701946E7
:1008D000097801EB4102C2EBC1114FF6FF7202EA47
:1008E000C101024A11807047000000200200002070
:1008F00070B504464FF4077094FBF0F0C6B24FF4A5
:10090000077094FBF0F100FB114085B205E04FF455
:10091000077000F009F8701EC6B2002EF7D115B1AD
:10092000284600F001F870BD01460D4A12884A437E
:100930004FF0E0235A6100229A6101221A6100BF40
:100940004FF0E022106900F001021AB100F4803289
:10095000002AF5D000224FF0E0231A619A61704717
:100960000200002000BF054A128802F04002002A5F
:10097000F9D0C2B2014B9A807047000000100140CC
:100980001CB520201C4908600723022208214FF4CF
:10099000A870FFF791FEA820FFF78AFF4FF4E1311E
:1009A000542000F03DF80120032100230246CDE948
:1009B000001049021148FFF7B7FD1CE00F48143042
:1009C00001680FA0FFF758FC4FF4FA70FFF790FF93
:1009D0004FF40070094914310860084601680CA002
:1009E000FFF74AFC4FF4FA70FFF782FF4FF4806084
:1009F000024914310860E1E7303802400014024037
:100A00003030302020206F64723A25640D0A0000D7
:100A10003131312020206F64723A25640D0A0000C4
:100A2000F0B52DED028B83B005460E46384905FB27
:100A300001F000EE100AF8EE400A300100EE100A54
:100A4000B8EE400A80EE801AB0EE418ABCEEC80AC9
:100A500010EE100A84B200EE104AB8EE400A38EEEA
:100A6000400AF3EE000A20EE200ABCEEC00A10EEA7
:100A7000107A4FF6FF7000EA0414E01984B225489A
:100A8000006840F0010023490860224814300068E3
:100A900040F010001F49143108600120022100239A
:100AA0000A46CDE900104FF4C0611B48FFF73CFD3A
:100AB000072209211848FFF717FD07220A211648C7
:100AC000FFF712FD15480481808920F40040134986
:100AD00088810846808940F008008881084680891E
:100AE00040F0040088810846808940F02000888119
:100AF0000223252203210846FFF786FD0748808947
:100B000040F400500549888103B0BDEC028BF0BD74
:100B100040420F0030380240000002400010014007
:100B20004FF04070E1EE100A704700004C0B0008D7
:100B3000000000200C000000C4010008580B000851
:100B40000C0000202C050000E0010008000000005F
:080B500000000000000000009D
:0400000508000231BC
:00000001FF
